{
  "contractName": "Donation",
  "abi": [
    {
      "constant": true,
      "inputs": [],
      "name": "donationCount",
      "outputs": [
        {
          "name": "",
          "type": "uint256"
        }
      ],
      "payable": false,
      "stateMutability": "view",
      "type": "function",
      "signature": "0x2abfab4d"
    },
    {
      "constant": true,
      "inputs": [
        {
          "name": "",
          "type": "address"
        },
        {
          "name": "",
          "type": "uint256"
        }
      ],
      "name": "donationsByDonateur",
      "outputs": [
        {
          "name": "",
          "type": "uint256"
        }
      ],
      "payable": false,
      "stateMutability": "view",
      "type": "function",
      "signature": "0x51c7f7d6"
    },
    {
      "constant": true,
      "inputs": [
        {
          "name": "",
          "type": "uint256"
        }
      ],
      "name": "donations",
      "outputs": [
        {
          "name": "id",
          "type": "uint256"
        },
        {
          "name": "donateur",
          "type": "address"
        },
        {
          "name": "montant",
          "type": "uint256"
        },
        {
          "name": "timestamp",
          "type": "uint256"
        }
      ],
      "payable": false,
      "stateMutability": "view",
      "type": "function",
      "signature": "0xf8626af8"
    },
    {
      "anonymous": false,
      "inputs": [
        {
          "indexed": false,
          "name": "id",
          "type": "uint256"
        },
        {
          "indexed": true,
          "name": "donateur",
          "type": "address"
        },
        {
          "indexed": false,
          "name": "montant",
          "type": "uint256"
        },
        {
          "indexed": false,
          "name": "timestamp",
          "type": "uint256"
        }
      ],
      "name": "DonationCreated",
      "type": "event",
      "signature": "0x6389d52932f001f805bda3695335e2ce2064320790f711cffd61bf0805131ce7"
    },
    {
      "constant": false,
      "inputs": [],
      "name": "createDonation",
      "outputs": [],
      "payable": true,
      "stateMutability": "payable",
      "type": "function",
      "signature": "0x08196a9e"
    },
    {
      "constant": true,
      "inputs": [
        {
          "name": "_id",
          "type": "uint256"
        }
      ],
      "name": "getDonation",
      "outputs": [
        {
          "name": "id",
          "type": "uint256"
        },
        {
          "name": "donateur",
          "type": "address"
        },
        {
          "name": "montant",
          "type": "uint256"
        },
        {
          "name": "timestamp",
          "type": "uint256"
        }
      ],
      "payable": false,
      "stateMutability": "view",
      "type": "function",
      "signature": "0xef07a81f"
    },
    {
      "constant": true,
      "inputs": [
        {
          "name": "_donateur",
          "type": "address"
        }
      ],
      "name": "getDonationsByDonateur",
      "outputs": [
        {
          "name": "",
          "type": "uint256[]"
        }
      ],
      "payable": false,
      "stateMutability": "view",
      "type": "function",
      "signature": "0x88c656ab"
    }
  ],
  "bytecode": "0x60806040526000805534801561001457600080fd5b506106c3806100246000396000f3fe608060405260043610610078576000357c0100000000000000000000000000000000000000000000000000000000900463ffffffff16806308196a9e1461007d5780632abfab4d1461008757806351c7f7d6146100b257806388c656ab14610121578063ef07a81f146101c7578063f8626af814610257575b600080fd5b6100856102e7565b005b34801561009357600080fd5b5061009c610519565b6040518082815260200191505060405180910390f35b3480156100be57600080fd5b5061010b600480360360408110156100d557600080fd5b81019080803573ffffffffffffffffffffffffffffffffffffffff1690602001909291908035906020019092919050505061051f565b6040518082815260200191505060405180910390f35b34801561012d57600080fd5b506101706004803603602081101561014457600080fd5b81019080803573ffffffffffffffffffffffffffffffffffffffff16906020019092919050505061054f565b6040518080602001828103825283818151815260200191508051906020019060200280838360005b838110156101b3578082015181840152602081019050610198565b505050509050019250505060405180910390f35b3480156101d357600080fd5b50610200600480360360208110156101ea57600080fd5b81019080803590602001909291905050506105e6565b604051808581526020018473ffffffffffffffffffffffffffffffffffffffff1673ffffffffffffffffffffffffffffffffffffffff16815260200183815260200182815260200194505050505060405180910390f35b34801561026357600080fd5b506102906004803603602081101561027a57600080fd5b8101908080359060200190929190505050610647565b604051808581526020018473ffffffffffffffffffffffffffffffffffffffff1673ffffffffffffffffffffffffffffffffffffffff16815260200183815260200182815260200194505050505060405180910390f35b600034111515610385576040517f08c379a00000000000000000000000000000000000000000000000000000000081526004018080602001828103825260258152602001807f4c65206d6f6e74616e7420646f697420c3aa74726520737570c3a9726965757281526020017f20c3a0203000000000000000000000000000000000000000000000000000000081525060400191505060405180910390fd5b600080815480929190600101919050555060806040519081016040528060005481526020013373ffffffffffffffffffffffffffffffffffffffff1681526020013481526020014281525060016000805481526020019081526020016000206000820151816000015560208201518160010160006101000a81548173ffffffffffffffffffffffffffffffffffffffff021916908373ffffffffffffffffffffffffffffffffffffffff1602179055506040820151816002015560608201518160030155905050600260003373ffffffffffffffffffffffffffffffffffffffff1673ffffffffffffffffffffffffffffffffffffffff16815260200190815260200160002060005490806001815401808255809150509060018203906000526020600020016000909192909190915055503373ffffffffffffffffffffffffffffffffffffffff167f6389d52932f001f805bda3695335e2ce2064320790f711cffd61bf0805131ce7600054344260405180848152602001838152602001828152602001935050505060405180910390a2565b60005481565b60026020528160005260406000208181548110151561053a57fe5b90600052602060002001600091509150505481565b6060600260008373ffffffffffffffffffffffffffffffffffffffff1673ffffffffffffffffffffffffffffffffffffffff1681526020019081526020016000208054806020026020016040519081016040528092919081815260200182805480156105da57602002820191906000526020600020905b8154815260200190600101908083116105c6575b50505050509050919050565b600080600080600060016000878152602001908152602001600020905080600001548160010160009054906101000a900473ffffffffffffffffffffffffffffffffffffffff16826002015483600301549450945094509450509193509193565b60016020528060005260406000206000915090508060000154908060010160009054906101000a900473ffffffffffffffffffffffffffffffffffffffff1690806002015490806003015490508456fea165627a7a7230582069168d227c3cbca3983c488ba290cb0dd0a49fb6fb6421209d7583e52d8acf7a0029",
  "source": "// SPDX-License-Identifier: MIT\npragma solidity ^0.5.0;\n\ncontract Donation {\n    uint256 public donationCount = 0;\n\n    struct DonationStruct {\n        uint256 id;\n        address donateur;\n        uint256 montant;\n        uint256 timestamp;\n    }\n\n    mapping(uint256 => DonationStruct) public donations;\n    mapping(address => uint256[]) public donationsByDonateur;\n\n    event DonationCreated(\n        uint256 id,\n        address indexed donateur,\n        uint256 montant,\n        uint256 timestamp\n    );\n\n    function createDonation() public payable {\n        require(msg.value > 0, \"Le montant doit être supérieur à 0\");\n\n        donationCount++;\n        donations[donationCount] = DonationStruct(\n            donationCount,\n            msg.sender,\n            msg.value,\n            block.timestamp\n        );\n        donationsByDonateur[msg.sender].push(donationCount);\n\n        emit DonationCreated(\n            donationCount,\n            msg.sender,\n            msg.value,\n            block.timestamp\n        );\n    }\n\n    function getDonation(\n        uint256 _id\n    )\n        public\n        view\n        returns (\n            uint256 id,\n            address donateur,\n            uint256 montant,\n            uint256 timestamp\n        )\n    {\n        DonationStruct storage donation = donations[_id];\n        return (\n            donation.id,\n            donation.donateur,\n            donation.montant,\n            donation.timestamp\n        );\n    }\n\n    function getDonationsByDonateur(\n        address _donateur\n    ) public view returns (uint256[] memory) {\n        return donationsByDonateur[_donateur];\n    }\n}\n",
  "sourcePath": "/Users/talib/Desktop/Estiam/truflle-web3/DonationApp/contracts/Donation.sol",
  "compiler": {
    "name": "solc",
    "version": "0.5.0+commit.1d4f565a.Emscripten.clang"
  },
  "schemaVersion": "3.0.1",
  "updatedAt": "2024-07-01T11:50:23.715Z",
  "devdoc": {
    "methods": {}
  },
  "userdoc": {
    "methods": {}
  }
}